{
  "_format": "hh-sol-artifact-1",
  "contractName": "EscrowSharingNFTHolder",
  "sourceName": "contracts/EscrowSharingNFTHolder.sol",
  "abi": [
    {
      "inputs": [
        {
          "internalType": "address",
          "name": "_nftAddress",
          "type": "address"
        }
      ],
      "stateMutability": "nonpayable",
      "type": "constructor"
    },
    {
      "inputs": [
        {
          "internalType": "address",
          "name": "owner",
          "type": "address"
        }
      ],
      "name": "OwnableInvalidOwner",
      "type": "error"
    },
    {
      "inputs": [
        {
          "internalType": "address",
          "name": "account",
          "type": "address"
        }
      ],
      "name": "OwnableUnauthorizedAccount",
      "type": "error"
    },
    {
      "inputs": [],
      "name": "ReentrancyGuardReentrantCall",
      "type": "error"
    },
    {
      "anonymous": false,
      "inputs": [
        {
          "indexed": true,
          "internalType": "address",
          "name": "previousOwner",
          "type": "address"
        },
        {
          "indexed": true,
          "internalType": "address",
          "name": "newOwner",
          "type": "address"
        }
      ],
      "name": "OwnershipTransferred",
      "type": "event"
    },
    {
      "anonymous": false,
      "inputs": [
        {
          "indexed": true,
          "internalType": "address",
          "name": "claimant",
          "type": "address"
        },
        {
          "indexed": false,
          "internalType": "uint256",
          "name": "amount",
          "type": "uint256"
        }
      ],
      "name": "RewardClaimed",
      "type": "event"
    },
    {
      "anonymous": false,
      "inputs": [
        {
          "indexed": true,
          "internalType": "uint256",
          "name": "day",
          "type": "uint256"
        },
        {
          "indexed": false,
          "internalType": "uint256",
          "name": "amount",
          "type": "uint256"
        }
      ],
      "name": "RewardsAdded",
      "type": "event"
    },
    {
      "inputs": [],
      "name": "MAX_FEE_RECIPIENTS",
      "outputs": [
        {
          "internalType": "uint256",
          "name": "",
          "type": "uint256"
        }
      ],
      "stateMutability": "view",
      "type": "function"
    },
    {
      "inputs": [
        {
          "internalType": "address",
          "name": "recipient_",
          "type": "address"
        },
        {
          "internalType": "uint256",
          "name": "feeRate_",
          "type": "uint256"
        }
      ],
      "name": "addFeeRecipient",
      "outputs": [],
      "stateMutability": "nonpayable",
      "type": "function"
    },
    {
      "inputs": [],
      "name": "checkClaimableRewards",
      "outputs": [
        {
          "internalType": "uint256",
          "name": "",
          "type": "uint256"
        }
      ],
      "stateMutability": "view",
      "type": "function"
    },
    {
      "inputs": [],
      "name": "checkPeriodFromLast",
      "outputs": [
        {
          "internalType": "uint256",
          "name": "",
          "type": "uint256"
        }
      ],
      "stateMutability": "view",
      "type": "function"
    },
    {
      "inputs": [],
      "name": "claimRewards",
      "outputs": [],
      "stateMutability": "nonpayable",
      "type": "function"
    },
    {
      "inputs": [],
      "name": "contractDeploymentTimestamp",
      "outputs": [
        {
          "internalType": "uint256",
          "name": "",
          "type": "uint256"
        }
      ],
      "stateMutability": "view",
      "type": "function"
    },
    {
      "inputs": [
        {
          "internalType": "uint256",
          "name": "",
          "type": "uint256"
        }
      ],
      "name": "dailyTotalNFTs",
      "outputs": [
        {
          "internalType": "uint256",
          "name": "",
          "type": "uint256"
        }
      ],
      "stateMutability": "view",
      "type": "function"
    },
    {
      "inputs": [
        {
          "internalType": "uint256",
          "name": "",
          "type": "uint256"
        }
      ],
      "name": "dailyTotalRewards",
      "outputs": [
        {
          "internalType": "uint256",
          "name": "",
          "type": "uint256"
        }
      ],
      "stateMutability": "view",
      "type": "function"
    },
    {
      "inputs": [],
      "name": "distributionPeriod",
      "outputs": [
        {
          "internalType": "uint256",
          "name": "",
          "type": "uint256"
        }
      ],
      "stateMutability": "view",
      "type": "function"
    },
    {
      "inputs": [],
      "name": "expirePeriod",
      "outputs": [
        {
          "internalType": "uint256",
          "name": "",
          "type": "uint256"
        }
      ],
      "stateMutability": "view",
      "type": "function"
    },
    {
      "inputs": [
        {
          "internalType": "address",
          "name": "",
          "type": "address"
        }
      ],
      "name": "lastClaimTimestamp",
      "outputs": [
        {
          "internalType": "uint256",
          "name": "",
          "type": "uint256"
        }
      ],
      "stateMutability": "view",
      "type": "function"
    },
    {
      "inputs": [],
      "name": "nftContract",
      "outputs": [
        {
          "internalType": "contract IERC721",
          "name": "",
          "type": "address"
        }
      ],
      "stateMutability": "view",
      "type": "function"
    },
    {
      "inputs": [],
      "name": "owner",
      "outputs": [
        {
          "internalType": "address",
          "name": "",
          "type": "address"
        }
      ],
      "stateMutability": "view",
      "type": "function"
    },
    {
      "inputs": [
        {
          "internalType": "address",
          "name": "recipient_",
          "type": "address"
        }
      ],
      "name": "removeFeeRecipient",
      "outputs": [],
      "stateMutability": "nonpayable",
      "type": "function"
    },
    {
      "inputs": [],
      "name": "renounceOwnership",
      "outputs": [],
      "stateMutability": "nonpayable",
      "type": "function"
    },
    {
      "inputs": [
        {
          "internalType": "address",
          "name": "nftContract_",
          "type": "address"
        }
      ],
      "name": "setNftContract",
      "outputs": [],
      "stateMutability": "nonpayable",
      "type": "function"
    },
    {
      "inputs": [
        {
          "internalType": "address",
          "name": "newOwner",
          "type": "address"
        }
      ],
      "name": "transferOwnership",
      "outputs": [],
      "stateMutability": "nonpayable",
      "type": "function"
    },
    {
      "inputs": [
        {
          "internalType": "address",
          "name": "user",
          "type": "address"
        },
        {
          "internalType": "bool",
          "name": "wrapOrUnwrap",
          "type": "bool"
        }
      ],
      "name": "updateDailyCountNFTs",
      "outputs": [],
      "stateMutability": "nonpayable",
      "type": "function"
    },
    {
      "inputs": [
        {
          "internalType": "uint256",
          "name": "period_",
          "type": "uint256"
        }
      ],
      "name": "updateExpirationPeriod",
      "outputs": [],
      "stateMutability": "nonpayable",
      "type": "function"
    },
    {
      "inputs": [
        {
          "internalType": "address",
          "name": "",
          "type": "address"
        },
        {
          "internalType": "uint256",
          "name": "",
          "type": "uint256"
        }
      ],
      "name": "usersNFTCount",
      "outputs": [
        {
          "internalType": "uint256",
          "name": "",
          "type": "uint256"
        }
      ],
      "stateMutability": "view",
      "type": "function"
    },
    {
      "stateMutability": "payable",
      "type": "receive"
    }
  ],
  "bytecode": "0x608060405262015180600455600760055534801561001c57600080fd5b5060405161148138038061148183398101604081905261003b916100e8565b338061006157604051631e4fbdf760e01b81526000600482015260240160405180910390fd5b61006a81610098565b5060018055600280546001600160a01b0319166001600160a01b039290921691909117905542600355610118565b600080546001600160a01b038381166001600160a01b0319831681178455604051919092169283917f8be0079c531659141344cd1fd0a4f28419497f9722a3daafe3b4186f6b6457e09190a35050565b6000602082840312156100fa57600080fd5b81516001600160a01b038116811461011157600080fd5b9392505050565b61135a806101276000396000f3fe6080604052600436106101235760003560e01c8063723c5e40116100a0578063bd9d518b11610064578063bd9d518b14610325578063bf60dc2114610352578063cfd94ac914610372578063d56d229d14610387578063f2fde38b146103a757600080fd5b8063723c5e40146102865780638da5cb5b146102b35780639b501723146102e5578063a540fa4e146102fb578063b051f5501461031057600080fd5b8063356119d8116100e7578063356119d8146101ef578063372500ab1461020f57806352f5ad771461022457806364438c2514610244578063715018a61461027157600080fd5b80630726ab9714610138578063126aa30d146101835780631aeb2802146101a357806321407e53146101b957806326ac8b3c146101cf57600080fd5b3661013357610131346103c7565b005b600080fd5b34801561014457600080fd5b506101706101533660046111ca565b600b60209081526000928352604080842090915290825290205481565b6040519081526020015b60405180910390f35b34801561018f57600080fd5b5061013161019e3660046111f4565b610493565b3480156101af57600080fd5b5061017060035481565b3480156101c557600080fd5b5061017060055481565b3480156101db57600080fd5b506101316101ea36600461120d565b6104f1565b3480156101fb57600080fd5b5061013161020a366004611249565b61064d565b34801561021b57600080fd5b50610131610818565b34801561023057600080fd5b5061013161023f366004611249565b610b46565b34801561025057600080fd5b5061017061025f3660046111f4565b60086020526000908152604090205481565b34801561027d57600080fd5b50610131610bb8565b34801561029257600080fd5b506101706102a13660046111f4565b60096020526000908152604090205481565b3480156102bf57600080fd5b506000546001600160a01b03165b6040516001600160a01b03909116815260200161017a565b3480156102f157600080fd5b5061017060045481565b34801561030757600080fd5b50610170610bca565b34801561031c57600080fd5b50610170610c0c565b34801561033157600080fd5b50610170610340366004611249565b600a6020526000908152604090205481565b34801561035e57600080fd5b5061013161036d3660046111ca565b610dda565b34801561037e57600080fd5b50610170600581565b34801561039357600080fd5b506002546102cd906001600160a01b031681565b3480156103b357600080fd5b506101316103c2366004611249565b610f8e565b8034146104135760405162461bcd60e51b8152602060048201526015602482015274135a5cdb585d18da19590811551208185b5bdd5b9d605a1b60448201526064015b60405180910390fd5b600060045460035442610426919061127a565b6104309190611293565b90508160086000838152602001908152602001600020600082825461045591906112b5565b909155505060405182815281907f40df43107e8b4d467127964bd3c966687c0a6a39aaede970755397fd09535e989060200160405180910390a25050565b61049b610fcc565b80600554036104ec5760405162461bcd60e51b815260206004820152601960248201527f416c72656164792073657420617320746869732076616c756500000000000000604482015260640161040a565b600555565b6002546001600160a01b031633146105405760405162461bcd60e51b815260206004820152601260248201527124b73b30b634b21037b832b930ba34b7b4b760711b604482015260640161040a565b600060045460035442610553919061127a565b61055d9190611293565b60008181526009602052604090205490915082610593576000811161058357600061059e565b61058e60018261127a565b61059e565b61059e8160016112b5565b600083815260096020526040908190209190915560025490516370a0823160e01b81526001600160a01b038681166004830152909116906370a0823190602401602060405180830381865afa1580156105fb573d6000803e3d6000fd5b505050506040513d601f19601f8201168201806040525081019061061f91906112c8565b6001600160a01b039094166000908152600b6020908152604080832094835293905291909120929092555050565b610655610fcc565b60075460005b6007548110156106ac57826001600160a01b031660078281548110610682576106826112e1565b6000918252602090912001546001600160a01b0316036106a4578091506106ac565b60010161065b565b5060075481106106f45760405162461bcd60e51b8152602060048201526013602482015272149958da5c1a595b9d081b9bdd08199bdd5b99606a1b604482015260640161040a565b600780546107049060019061127a565b81548110610714576107146112e1565b600091825260209091200154600780546001600160a01b039092169183908110610740576107406112e1565b9060005260206000200160006101000a8154816001600160a01b0302191690836001600160a01b03160217905550600780548061077f5761077f6112f7565b600082815260209020810160001990810180546001600160a01b03191690550190556007546006906107b39060019061127a565b815481106107c3576107c36112e1565b9060005260206000200154600682815481106107e1576107e16112e1565b60009182526020909120015560068054806107fe576107fe6112f7565b600190038181906000526020600020016000905590555050565b610820610ff9565b336000908152600a60205260408120541561086457600454600354336000908152600a6020526040902054610855919061127a565b61085f9190611293565b610867565b60005b905060006004546003544261087c919061127a565b6108869190611293565b9050600080826005548561089a91906112b5565b1061091e57835b83811015610918576000818152600960205260409020541561091057600081815260096020908152604080832054338452600b835281842085855283528184205460089093529083205490916108f69161130d565b6109009190611293565b905061090c81856112b5565b9350505b6001016108a1565b50610a71565b60005b6005548110156109e457600060098161093a84896112b5565b81526020019081526020016000205411156109dc57600060098161095e84896112b5565b81526020808201929092526040908101600090812054338252600b9093529081209061098a858a6112b5565b81526020019081526020016000205460086000858a6109a991906112b5565b8152602001908152602001600020546109c2919061130d565b6109cc9190611293565b90506109d881856112b5565b9350505b600101610921565b506000600554856109f591906112b5565b90505b83811015610a6f5760008181526009602052604090205415610a6757600081815260096020908152604080832054338452600b83528184208585528352818420546008909352908320549091610a4d9161130d565b610a579190611293565b9050610a6381846112b5565b9250505b6001016109f8565b505b8015610a8057610a8081611023565b60008211610ac65760405162461bcd60e51b81526020600482015260136024820152724e6f207265776172647320746f20636c61696d60681b604482015260640161040a565b336000818152600a60205260408082204290555184156108fc0291859190818181858888f19350505050158015610b01573d6000803e3d6000fd5b5060405182815233907f106f923f993c2149d49b4255ff723acafa1f2d94393f561d3eda32ae348f72419060200160405180910390a250505050610b4460018055565b565b610b4e610fcc565b6001600160a01b038116610b965760405162461bcd60e51b815260206004820152600f60248201526e496e76616c6964204164647265737360881b604482015260640161040a565b600280546001600160a01b0319166001600160a01b0392909216919091179055565b610bc0610fcc565b610b44600061115e565b336000908152600a6020526040812054819015610bf657336000908152600a6020526040902054610bfa565b6003545b9050610c06814261127a565b91505090565b336000908152600a6020526040812054819015610c5257600454600354336000908152600a6020526040902054610c43919061127a565b610c4d9190611293565b610c55565b60005b9050600060045460035442610c6a919061127a565b610c749190611293565b905060008160055484610c8791906112b5565b10610d0b57825b82811015610d055760008181526009602052604090205415610cfd57600081815260096020908152604080832054338452600b83528184208585528352818420546008909352908320549091610ce39161130d565b610ced9190611293565b9050610cf981846112b5565b9250505b600101610c8e565b50610dd3565b60005b600554811015610dd1576000600981610d2784886112b5565b8152602001908152602001600020541115610dc9576000600981610d4b84886112b5565b81526020808201929092526040908101600090812054338252600b90935290812090610d7785896112b5565b815260200190815260200160002054600860008589610d9691906112b5565b815260200190815260200160002054610daf919061130d565b610db99190611293565b9050610dc581846112b5565b9250505b600101610d0e565b505b9392505050565b610de2610fcc565b6001600160a01b038216610e275760405162461bcd60e51b815260206004820152600c60248201526b5a65726f204164647265737360a01b604482015260640161040a565b600754600511610e795760405162461bcd60e51b815260206004820152601a60248201527f4d61782066656520726563697069656e74732072656163686564000000000000604482015260640161040a565b60005b600754811015610f0d57826001600160a01b031660078281548110610ea357610ea36112e1565b6000918252602090912001546001600160a01b031603610f055760405162461bcd60e51b815260206004820152601860248201527f526563697069656e7420616c7265616479206578697374730000000000000000604482015260640161040a565b600101610e7c565b506007805460018082019092557fa66cc928b5edb82af9bd49922954155ab7b0942694bea4ce44661d9a8736c6880180546001600160a01b0319166001600160a01b0394909416939093179092556006805492830181556000527ff652222313e28459528d920b65115c16c04f3efc82aaedc97be59f3f377c0d3f90910155565b610f96610fcc565b6001600160a01b038116610fc057604051631e4fbdf760e01b81526000600482015260240161040a565b610fc98161115e565b50565b6000546001600160a01b03163314610b445760405163118cdaa760e01b815233600482015260240161040a565b60026001540361101c57604051633ee5aeb560e01b815260040160405180910390fd5b6002600155565b6000805b6007548110156110645760068181548110611044576110446112e1565b90600052602060002001548261105a91906112b5565b9150600101611027565b50600081116110b55760405162461bcd60e51b815260206004820152601960248201527f546f74616c20726174652063616e6e6f74206265207a65726f00000000000000604482015260640161040a565b60005b600754811015611159576000600682815481106110d7576110d76112e1565b60009182526020822001549150836110ef838761130d565b6110f99190611293565b90506007838154811061110e5761110e6112e1565b60009182526020822001546040516001600160a01b039091169183156108fc02918491818181858888f1935050505015801561114e573d6000803e3d6000fd5b5050506001016110b8565b505050565b600080546001600160a01b038381166001600160a01b0319831681178455604051919092169283917f8be0079c531659141344cd1fd0a4f28419497f9722a3daafe3b4186f6b6457e09190a35050565b80356001600160a01b03811681146111c557600080fd5b919050565b600080604083850312156111dd57600080fd5b6111e6836111ae565b946020939093013593505050565b60006020828403121561120657600080fd5b5035919050565b6000806040838503121561122057600080fd5b611229836111ae565b91506020830135801515811461123e57600080fd5b809150509250929050565b60006020828403121561125b57600080fd5b610dd3826111ae565b634e487b7160e01b600052601160045260246000fd5b8181038181111561128d5761128d611264565b92915050565b6000826112b057634e487b7160e01b600052601260045260246000fd5b500490565b8082018082111561128d5761128d611264565b6000602082840312156112da57600080fd5b5051919050565b634e487b7160e01b600052603260045260246000fd5b634e487b7160e01b600052603160045260246000fd5b808202811582820484141761128d5761128d61126456fea2646970667358221220eecb3c5a3713b8e1e75963841c91521bdf270251b1fb3739516231c2cf55aa5b64736f6c63430008180033",
  "linkReferences": {},
  "deployedLinkReferences": {}
}