{
  "_format": "hh-sol-artifact-1",
  "contractName": "EscrowSharingTax",
  "sourceName": "contracts/EscrowSharingTax.sol",
  "abi": [
    {
      "inputs": [
        {
          "internalType": "address",
          "name": "feeSupplyer_",
          "type": "address"
        }
      ],
      "stateMutability": "nonpayable",
      "type": "constructor"
    },
    {
      "inputs": [
        {
          "internalType": "address",
          "name": "owner",
          "type": "address"
        }
      ],
      "name": "OwnableInvalidOwner",
      "type": "error"
    },
    {
      "inputs": [
        {
          "internalType": "address",
          "name": "account",
          "type": "address"
        }
      ],
      "name": "OwnableUnauthorizedAccount",
      "type": "error"
    },
    {
      "inputs": [],
      "name": "ReentrancyGuardReentrantCall",
      "type": "error"
    },
    {
      "anonymous": false,
      "inputs": [
        {
          "indexed": true,
          "internalType": "address",
          "name": "previousOwner",
          "type": "address"
        },
        {
          "indexed": true,
          "internalType": "address",
          "name": "newOwner",
          "type": "address"
        }
      ],
      "name": "OwnershipTransferred",
      "type": "event"
    },
    {
      "anonymous": false,
      "inputs": [
        {
          "indexed": true,
          "internalType": "uint256",
          "name": "day",
          "type": "uint256"
        },
        {
          "indexed": false,
          "internalType": "uint256",
          "name": "amount",
          "type": "uint256"
        }
      ],
      "name": "RewardsAdded",
      "type": "event"
    },
    {
      "inputs": [],
      "name": "MAX_FEE_RECIPIENTS",
      "outputs": [
        {
          "internalType": "uint256",
          "name": "",
          "type": "uint256"
        }
      ],
      "stateMutability": "view",
      "type": "function"
    },
    {
      "inputs": [
        {
          "internalType": "address",
          "name": "recipient_",
          "type": "address"
        },
        {
          "internalType": "uint256",
          "name": "feeRate_",
          "type": "uint256"
        }
      ],
      "name": "addFeeRecipient",
      "outputs": [],
      "stateMutability": "nonpayable",
      "type": "function"
    },
    {
      "inputs": [],
      "name": "feeSupplyer",
      "outputs": [
        {
          "internalType": "address",
          "name": "",
          "type": "address"
        }
      ],
      "stateMutability": "view",
      "type": "function"
    },
    {
      "inputs": [],
      "name": "isFeeRecipientSet",
      "outputs": [
        {
          "internalType": "bool",
          "name": "",
          "type": "bool"
        }
      ],
      "stateMutability": "view",
      "type": "function"
    },
    {
      "inputs": [],
      "name": "manualDisperse",
      "outputs": [],
      "stateMutability": "nonpayable",
      "type": "function"
    },
    {
      "inputs": [],
      "name": "owner",
      "outputs": [
        {
          "internalType": "address",
          "name": "",
          "type": "address"
        }
      ],
      "stateMutability": "view",
      "type": "function"
    },
    {
      "inputs": [
        {
          "internalType": "address",
          "name": "recipient_",
          "type": "address"
        }
      ],
      "name": "removeFeeRecipient",
      "outputs": [],
      "stateMutability": "nonpayable",
      "type": "function"
    },
    {
      "inputs": [],
      "name": "renounceOwnership",
      "outputs": [],
      "stateMutability": "nonpayable",
      "type": "function"
    },
    {
      "inputs": [
        {
          "internalType": "address",
          "name": "feeSupplyer_",
          "type": "address"
        }
      ],
      "name": "setFeeSupplyer",
      "outputs": [],
      "stateMutability": "nonpayable",
      "type": "function"
    },
    {
      "inputs": [
        {
          "internalType": "uint256",
          "name": "newFeeThreshold_",
          "type": "uint256"
        }
      ],
      "name": "setFeeThreshold",
      "outputs": [],
      "stateMutability": "nonpayable",
      "type": "function"
    },
    {
      "inputs": [
        {
          "internalType": "address",
          "name": "newOwner",
          "type": "address"
        }
      ],
      "name": "transferOwnership",
      "outputs": [],
      "stateMutability": "nonpayable",
      "type": "function"
    },
    {
      "stateMutability": "payable",
      "type": "receive"
    }
  ],
  "bytecode": "0x608060405267016345785d8a000060025534801561001c57600080fd5b50604051610bfa380380610bfa83398101604081905261003b916100e4565b338061006157604051631e4fbdf760e01b81526000600482015260240160405180910390fd5b61006a81610094565b5060018055600580546001600160a01b0319166001600160a01b0392909216919091179055610114565b600080546001600160a01b038381166001600160a01b0319831681178455604051919092169283917f8be0079c531659141344cd1fd0a4f28419497f9722a3daafe3b4186f6b6457e09190a35050565b6000602082840312156100f657600080fd5b81516001600160a01b038116811461010d57600080fd5b9392505050565b610ad7806101236000396000f3fe6080604052600436106100a05760003560e01c806392d42ee71161006457806392d42ee7146101ae578063bf60dc21146101ce578063cfd94ac9146101ee578063db83efec14610211578063ec1636b814610226578063f2fde38b1461024657600080fd5b80632dc17aff146100f7578063356119d814610121578063715018a61461014357806381321535146101585780638da5cb5b1461019057600080fd5b366100f25760025447106100b6576100b6610266565b427f40df43107e8b4d467127964bd3c966687c0a6a39aaede970755397fd09535e98346040516100e891815260200190565b60405180910390a2005b600080fd5b34801561010357600080fd5b5061010c61044e565b60405190151581526020015b60405180910390f35b34801561012d57600080fd5b5061014161013c366004610995565b610464565b005b34801561014f57600080fd5b5061014161062f565b34801561016457600080fd5b50600554610178906001600160a01b031681565b6040516001600160a01b039091168152602001610118565b34801561019c57600080fd5b506000546001600160a01b0316610178565b3480156101ba57600080fd5b506101416101c9366004610995565b610643565b3480156101da57600080fd5b506101416101e93660046109b7565b6106b5565b3480156101fa57600080fd5b50610203600581565b604051908152602001610118565b34801561021d57600080fd5b50610141610869565b34801561023257600080fd5b506101416102413660046109e1565b610871565b34801561025257600080fd5b50610141610261366004610995565b6108be565b6005546001600160a01b031633148061028957506000546001600160a01b031633145b6102ce5760405162461bcd60e51b815260206004820152601160248201527024b73b30b634b21027b832b930ba34b7b760791b60448201526064015b60405180910390fd5b47806103135760405162461bcd60e51b81526020600482015260146024820152734e6f2045544820746f206469737472696275746560601b60448201526064016102c5565b6000805b6004548110156103545760038181548110610334576103346109fa565b90600052602060002001548261034a9190610a26565b9150600101610317565b50600081116103a55760405162461bcd60e51b815260206004820152601960248201527f546f74616c20726174652063616e6e6f74206265207a65726f0000000000000060448201526064016102c5565b60005b600454811015610449576000600382815481106103c7576103c76109fa565b60009182526020822001549150836103df8387610a3f565b6103e99190610a56565b9050600483815481106103fe576103fe6109fa565b60009182526020822001546040516001600160a01b039091169183156108fc02918491818181858888f1935050505015801561043e573d6000803e3d6000fd5b5050506001016103a8565b505050565b60045460009061045e5750600090565b50600190565b61046c6108fc565b60045460005b6004548110156104c357826001600160a01b031660048281548110610499576104996109fa565b6000918252602090912001546001600160a01b0316036104bb578091506104c3565b600101610472565b50600454811061050b5760405162461bcd60e51b8152602060048201526013602482015272149958da5c1a595b9d081b9bdd08199bdd5b99606a1b60448201526064016102c5565b6004805461051b90600190610a78565b8154811061052b5761052b6109fa565b600091825260209091200154600480546001600160a01b039092169183908110610557576105576109fa565b9060005260206000200160006101000a8154816001600160a01b0302191690836001600160a01b03160217905550600480548061059657610596610a8b565b600082815260209020810160001990810180546001600160a01b03191690550190556004546003906105ca90600190610a78565b815481106105da576105da6109fa565b9060005260206000200154600382815481106105f8576105f86109fa565b600091825260209091200155600380548061061557610615610a8b565b600190038181906000526020600020016000905590555050565b6106376108fc565b6106416000610929565b565b61064b6108fc565b6001600160a01b0381166106935760405162461bcd60e51b815260206004820152600f60248201526e496e76616c6964204164647265737360881b60448201526064016102c5565b600580546001600160a01b0319166001600160a01b0392909216919091179055565b6106bd6108fc565b6001600160a01b0382166107025760405162461bcd60e51b815260206004820152600c60248201526b5a65726f204164647265737360a01b60448201526064016102c5565b6004546005116107545760405162461bcd60e51b815260206004820152601a60248201527f4d61782066656520726563697069656e7473207265616368656400000000000060448201526064016102c5565b60005b6004548110156107e857826001600160a01b03166004828154811061077e5761077e6109fa565b6000918252602090912001546001600160a01b0316036107e05760405162461bcd60e51b815260206004820152601860248201527f526563697069656e7420616c726561647920657869737473000000000000000060448201526064016102c5565b600101610757565b506004805460018082019092557f8a35acfbc15ff81a39ae7d344fd709f28e8600b4aa8c65c6b64bfe7fe36bd19b0180546001600160a01b0319166001600160a01b0394909416939093179092556003805492830181556000527fc2575a0e9e593c00f959f8c92f12db2869c3395a3b0502d05e2516446f71f85b90910155565b610641610266565b6108796108fc565b806000036108b95760405162461bcd60e51b815260206004820152600d60248201526c496e76616c69642056616c756560981b60448201526064016102c5565b600255565b6108c66108fc565b6001600160a01b0381166108f057604051631e4fbdf760e01b8152600060048201526024016102c5565b6108f981610929565b50565b6000546001600160a01b031633146106415760405163118cdaa760e01b81523360048201526024016102c5565b600080546001600160a01b038381166001600160a01b0319831681178455604051919092169283917f8be0079c531659141344cd1fd0a4f28419497f9722a3daafe3b4186f6b6457e09190a35050565b80356001600160a01b038116811461099057600080fd5b919050565b6000602082840312156109a757600080fd5b6109b082610979565b9392505050565b600080604083850312156109ca57600080fd5b6109d383610979565b946020939093013593505050565b6000602082840312156109f357600080fd5b5035919050565b634e487b7160e01b600052603260045260246000fd5b634e487b7160e01b600052601160045260246000fd5b80820180821115610a3957610a39610a10565b92915050565b8082028115828204841417610a3957610a39610a10565b600082610a7357634e487b7160e01b600052601260045260246000fd5b500490565b81810381811115610a3957610a39610a10565b634e487b7160e01b600052603160045260246000fdfea26469706673582212201b79013acd6e8e81cabcbf1a5eae96f7b756f42c6da995487e1ca3f38cec5b8c64736f6c63430008180033",
  "linkReferences": {},
  "deployedLinkReferences": {}
}