{
  "_format": "hh-sol-artifact-1",
  "contractName": "HYBRIDS",
  "sourceName": "contracts/HYBRIDS.sol",
  "abi": [
    {
      "inputs": [],
      "stateMutability": "nonpayable",
      "type": "constructor"
    },
    {
      "inputs": [
        {
          "internalType": "address",
          "name": "owner",
          "type": "address"
        }
      ],
      "name": "OwnableInvalidOwner",
      "type": "error"
    },
    {
      "inputs": [
        {
          "internalType": "address",
          "name": "account",
          "type": "address"
        }
      ],
      "name": "OwnableUnauthorizedAccount",
      "type": "error"
    },
    {
      "inputs": [],
      "name": "ReentrancyGuardReentrantCall",
      "type": "error"
    },
    {
      "anonymous": false,
      "inputs": [
        {
          "indexed": true,
          "internalType": "address",
          "name": "owner",
          "type": "address"
        },
        {
          "indexed": true,
          "internalType": "address",
          "name": "spender",
          "type": "address"
        },
        {
          "indexed": false,
          "internalType": "uint256",
          "name": "value",
          "type": "uint256"
        }
      ],
      "name": "Approval",
      "type": "event"
    },
    {
      "anonymous": false,
      "inputs": [
        {
          "indexed": false,
          "internalType": "uint256",
          "name": "_maxTxAmount",
          "type": "uint256"
        }
      ],
      "name": "MaxTxAmountUpdated",
      "type": "event"
    },
    {
      "anonymous": false,
      "inputs": [
        {
          "indexed": true,
          "internalType": "address",
          "name": "previousOwner",
          "type": "address"
        },
        {
          "indexed": true,
          "internalType": "address",
          "name": "newOwner",
          "type": "address"
        }
      ],
      "name": "OwnershipTransferred",
      "type": "event"
    },
    {
      "anonymous": false,
      "inputs": [
        {
          "indexed": true,
          "internalType": "address",
          "name": "from",
          "type": "address"
        },
        {
          "indexed": true,
          "internalType": "address",
          "name": "to",
          "type": "address"
        },
        {
          "indexed": false,
          "internalType": "uint256",
          "name": "value",
          "type": "uint256"
        }
      ],
      "name": "Transfer",
      "type": "event"
    },
    {
      "inputs": [],
      "name": "UNITOKEN",
      "outputs": [
        {
          "internalType": "uint256",
          "name": "",
          "type": "uint256"
        }
      ],
      "stateMutability": "view",
      "type": "function"
    },
    {
      "inputs": [],
      "name": "_acTradingFee",
      "outputs": [
        {
          "internalType": "uint256",
          "name": "",
          "type": "uint256"
        }
      ],
      "stateMutability": "view",
      "type": "function"
    },
    {
      "inputs": [],
      "name": "_acWrappingFee",
      "outputs": [
        {
          "internalType": "uint256",
          "name": "",
          "type": "uint256"
        }
      ],
      "stateMutability": "view",
      "type": "function"
    },
    {
      "inputs": [],
      "name": "_escrowForNFTHolder",
      "outputs": [
        {
          "internalType": "address",
          "name": "",
          "type": "address"
        }
      ],
      "stateMutability": "view",
      "type": "function"
    },
    {
      "inputs": [],
      "name": "_escrowForSwapInstance",
      "outputs": [
        {
          "internalType": "contract IEscrowSharingTax",
          "name": "",
          "type": "address"
        }
      ],
      "stateMutability": "view",
      "type": "function"
    },
    {
      "inputs": [
        {
          "internalType": "address[]",
          "name": "bots_",
          "type": "address[]"
        }
      ],
      "name": "addBots",
      "outputs": [],
      "stateMutability": "nonpayable",
      "type": "function"
    },
    {
      "inputs": [
        {
          "internalType": "address",
          "name": "account",
          "type": "address"
        }
      ],
      "name": "addToExcludeList",
      "outputs": [],
      "stateMutability": "nonpayable",
      "type": "function"
    },
    {
      "inputs": [
        {
          "internalType": "address",
          "name": "owner",
          "type": "address"
        },
        {
          "internalType": "address",
          "name": "spender",
          "type": "address"
        }
      ],
      "name": "allowance",
      "outputs": [
        {
          "internalType": "uint256",
          "name": "",
          "type": "uint256"
        }
      ],
      "stateMutability": "view",
      "type": "function"
    },
    {
      "inputs": [
        {
          "internalType": "address",
          "name": "spender",
          "type": "address"
        },
        {
          "internalType": "uint256",
          "name": "amount",
          "type": "uint256"
        }
      ],
      "name": "approve",
      "outputs": [
        {
          "internalType": "bool",
          "name": "",
          "type": "bool"
        }
      ],
      "stateMutability": "nonpayable",
      "type": "function"
    },
    {
      "inputs": [
        {
          "internalType": "address",
          "name": "account",
          "type": "address"
        }
      ],
      "name": "balanceOf",
      "outputs": [
        {
          "internalType": "uint256",
          "name": "",
          "type": "uint256"
        }
      ],
      "stateMutability": "view",
      "type": "function"
    },
    {
      "inputs": [
        {
          "internalType": "address",
          "name": "",
          "type": "address"
        }
      ],
      "name": "bots",
      "outputs": [
        {
          "internalType": "bool",
          "name": "",
          "type": "bool"
        }
      ],
      "stateMutability": "view",
      "type": "function"
    },
    {
      "inputs": [],
      "name": "decimals",
      "outputs": [
        {
          "internalType": "uint256",
          "name": "",
          "type": "uint256"
        }
      ],
      "stateMutability": "pure",
      "type": "function"
    },
    {
      "inputs": [
        {
          "internalType": "address[]",
          "name": "notbot",
          "type": "address[]"
        }
      ],
      "name": "delBots",
      "outputs": [],
      "stateMutability": "nonpayable",
      "type": "function"
    },
    {
      "inputs": [],
      "name": "hybridsNFT",
      "outputs": [
        {
          "internalType": "contract HYBRIDSWRAPPER",
          "name": "",
          "type": "address"
        }
      ],
      "stateMutability": "view",
      "type": "function"
    },
    {
      "inputs": [],
      "name": "inSwap",
      "outputs": [
        {
          "internalType": "bool",
          "name": "",
          "type": "bool"
        }
      ],
      "stateMutability": "view",
      "type": "function"
    },
    {
      "inputs": [
        {
          "internalType": "address",
          "name": "a",
          "type": "address"
        }
      ],
      "name": "isBot",
      "outputs": [
        {
          "internalType": "bool",
          "name": "",
          "type": "bool"
        }
      ],
      "stateMutability": "view",
      "type": "function"
    },
    {
      "inputs": [],
      "name": "manualDisperseForNFT",
      "outputs": [],
      "stateMutability": "nonpayable",
      "type": "function"
    },
    {
      "inputs": [],
      "name": "manualDisperseForToken",
      "outputs": [],
      "stateMutability": "nonpayable",
      "type": "function"
    },
    {
      "inputs": [],
      "name": "name",
      "outputs": [
        {
          "internalType": "string",
          "name": "",
          "type": "string"
        }
      ],
      "stateMutability": "pure",
      "type": "function"
    },
    {
      "inputs": [],
      "name": "openTrading",
      "outputs": [],
      "stateMutability": "nonpayable",
      "type": "function"
    },
    {
      "inputs": [],
      "name": "owner",
      "outputs": [
        {
          "internalType": "address",
          "name": "",
          "type": "address"
        }
      ],
      "stateMutability": "view",
      "type": "function"
    },
    {
      "inputs": [],
      "name": "prepareUnWrap",
      "outputs": [
        {
          "internalType": "uint256",
          "name": "",
          "type": "uint256"
        }
      ],
      "stateMutability": "view",
      "type": "function"
    },
    {
      "inputs": [],
      "name": "prepareWrap",
      "outputs": [
        {
          "internalType": "uint256",
          "name": "",
          "type": "uint256"
        }
      ],
      "stateMutability": "view",
      "type": "function"
    },
    {
      "inputs": [
        {
          "internalType": "address",
          "name": "account",
          "type": "address"
        }
      ],
      "name": "removeFromExcludeList",
      "outputs": [],
      "stateMutability": "nonpayable",
      "type": "function"
    },
    {
      "inputs": [],
      "name": "removeLimits",
      "outputs": [],
      "stateMutability": "nonpayable",
      "type": "function"
    },
    {
      "inputs": [],
      "name": "renounceOwnership",
      "outputs": [],
      "stateMutability": "nonpayable",
      "type": "function"
    },
    {
      "inputs": [
        {
          "internalType": "string",
          "name": "_newBaseURI",
          "type": "string"
        }
      ],
      "name": "setBaseURINFT",
      "outputs": [],
      "stateMutability": "nonpayable",
      "type": "function"
    },
    {
      "inputs": [
        {
          "internalType": "uint256",
          "name": "newFee",
          "type": "uint256"
        }
      ],
      "name": "setBuyFee",
      "outputs": [],
      "stateMutability": "nonpayable",
      "type": "function"
    },
    {
      "inputs": [
        {
          "internalType": "address",
          "name": "escrow_",
          "type": "address"
        }
      ],
      "name": "setEscrowForSwap",
      "outputs": [],
      "stateMutability": "nonpayable",
      "type": "function"
    },
    {
      "inputs": [
        {
          "internalType": "address",
          "name": "escrow_",
          "type": "address"
        }
      ],
      "name": "setEscrowForWrap",
      "outputs": [],
      "stateMutability": "nonpayable",
      "type": "function"
    },
    {
      "inputs": [
        {
          "internalType": "address",
          "name": "account",
          "type": "address"
        },
        {
          "internalType": "bool",
          "name": "state",
          "type": "bool"
        }
      ],
      "name": "setIsBot",
      "outputs": [],
      "stateMutability": "nonpayable",
      "type": "function"
    },
    {
      "inputs": [
        {
          "internalType": "uint256",
          "name": "newFee",
          "type": "uint256"
        }
      ],
      "name": "setSellFee",
      "outputs": [],
      "stateMutability": "nonpayable",
      "type": "function"
    },
    {
      "inputs": [
        {
          "internalType": "uint256",
          "name": "wrapFee_",
          "type": "uint256"
        },
        {
          "internalType": "uint256",
          "name": "unwrapFee_",
          "type": "uint256"
        }
      ],
      "name": "setTokenFees",
      "outputs": [],
      "stateMutability": "nonpayable",
      "type": "function"
    },
    {
      "inputs": [],
      "name": "swapEnabled",
      "outputs": [
        {
          "internalType": "bool",
          "name": "",
          "type": "bool"
        }
      ],
      "stateMutability": "view",
      "type": "function"
    },
    {
      "inputs": [],
      "name": "symbol",
      "outputs": [
        {
          "internalType": "string",
          "name": "",
          "type": "string"
        }
      ],
      "stateMutability": "pure",
      "type": "function"
    },
    {
      "inputs": [],
      "name": "totalSupply",
      "outputs": [
        {
          "internalType": "uint256",
          "name": "",
          "type": "uint256"
        }
      ],
      "stateMutability": "pure",
      "type": "function"
    },
    {
      "inputs": [],
      "name": "tradingOpen",
      "outputs": [
        {
          "internalType": "bool",
          "name": "",
          "type": "bool"
        }
      ],
      "stateMutability": "view",
      "type": "function"
    },
    {
      "inputs": [
        {
          "internalType": "address",
          "name": "recipient",
          "type": "address"
        },
        {
          "internalType": "uint256",
          "name": "amount",
          "type": "uint256"
        }
      ],
      "name": "transfer",
      "outputs": [
        {
          "internalType": "bool",
          "name": "",
          "type": "bool"
        }
      ],
      "stateMutability": "nonpayable",
      "type": "function"
    },
    {
      "inputs": [
        {
          "internalType": "address",
          "name": "sender",
          "type": "address"
        },
        {
          "internalType": "address",
          "name": "recipient",
          "type": "address"
        },
        {
          "internalType": "uint256",
          "name": "amount",
          "type": "uint256"
        }
      ],
      "name": "transferFrom",
      "outputs": [
        {
          "internalType": "bool",
          "name": "",
          "type": "bool"
        }
      ],
      "stateMutability": "nonpayable",
      "type": "function"
    },
    {
      "inputs": [
        {
          "internalType": "address",
          "name": "newOwner",
          "type": "address"
        }
      ],
      "name": "transferOwnership",
      "outputs": [],
      "stateMutability": "nonpayable",
      "type": "function"
    },
    {
      "inputs": [],
      "name": "uniswapV2Pair",
      "outputs": [
        {
          "internalType": "address",
          "name": "",
          "type": "address"
        }
      ],
      "stateMutability": "view",
      "type": "function"
    },
    {
      "inputs": [],
      "name": "uniswapV2Router",
      "outputs": [
        {
          "internalType": "contract IUniswapV2Router02",
          "name": "",
          "type": "address"
        }
      ],
      "stateMutability": "view",
      "type": "function"
    },
    {
      "inputs": [
        {
          "internalType": "uint256",
          "name": "tokenID_",
          "type": "uint256"
        }
      ],
      "name": "unwrap",
      "outputs": [],
      "stateMutability": "nonpayable",
      "type": "function"
    },
    {
      "inputs": [
        {
          "internalType": "uint256",
          "name": "tokenID_",
          "type": "uint256"
        }
      ],
      "name": "wrap",
      "outputs": [],
      "stateMutability": "nonpayable",
      "type": "function"
    },
    {
      "stateMutability": "payable",
      "type": "receive"
    }
  ],
  "bytecode": "0x6080604052600060075560006008556101f4600955610320600a556012600a6200002a919062000381565b62000038906101f462000396565b600b55620000496012600a62000381565b620000579061138862000396565b600c55620000686012600a62000381565b6200007590600162000396565b600d55620000866012600a62000381565b6200009390600162000396565b600e556012805461ffff60a81b19169055348015620000b157600080fd5b503380620000d957604051631e4fbdf760e01b81526000600482015260240160405180910390fd5b620000e4816200020e565b5060018055620000f76012600a62000381565b620001059061271062000396565b3360009081526002602090815260408083209390935581546001600160a01b03168252600490528181208054600160ff19918216811790925530835291839020805490921617905551612710906200015d906200025e565b620001699190620003b0565b604051809103906000f08015801562000186573d6000803e3d6000fd5b50601380546001600160a01b0319166001600160a01b0392909216919091179055620001af3390565b6001600160a01b031660007fddf252ad1be2c89b69c2b068fc378daa952ba7f163c4a11628f55a4df523b3ef620001e96012600a62000381565b620001f79061271062000396565b60405190815260200160405180910390a362000414565b600080546001600160a01b038381166001600160a01b0319831681178455604051919092169283917f8be0079c531659141344cd1fd0a4f28419497f9722a3daafe3b4186f6b6457e09190a35050565b6126dc8062002acc83390190565b634e487b7160e01b600052601160045260246000fd5b600181815b80851115620002c3578160001904821115620002a757620002a76200026c565b80851615620002b557918102915b93841c939080029062000287565b509250929050565b600082620002dc575060016200037b565b81620002eb575060006200037b565b81600181146200030457600281146200030f576200032f565b60019150506200037b565b60ff8411156200032357620003236200026c565b50506001821b6200037b565b5060208310610133831016604e8410600b841016171562000354575081810a6200037b565b62000360838362000282565b80600019048211156200037757620003776200026c565b0290505b92915050565b60006200038f8383620002cb565b9392505050565b80820281158282048414176200037b576200037b6200026c565b606081526000620003db60608301600a81526912165094925114d3919560b21b602082015260400190565b82810360208401526200040581600a81526912165094925114d3919560b21b602082015260400190565b91505082604083015292915050565b6126a880620004246000396000f3fe60806040526004361061026b5760003560e01c80636ddd171311610144578063aaa9ba7d116100b6578063d83067861161007a578063d830678614610725578063dd62ed3e14610746578063de0e9a3e1461078c578063ea598cb0146107ac578063f2fde38b146107cc578063ffb54a99146107ec57600080fd5b8063aaa9ba7d14610696578063bea67432146106ab578063bfd79284146106c0578063c9567bf9146106f0578063d34628cc1461070557600080fd5b80638b4cee08116101085780638b4cee08146106025780638da5cb5b146106225780638ef3227d146106405780638ff55b391461066057806395d89b41146102d6578063a9059cbb1461067657600080fd5b80636ddd17131461056157806370a0823114610582578063715018a6146105b857806372fbf58a146105cd578063751039fc146105ed57600080fd5b80631e4bdf96116101dd57806331c2d847116101a157806331c2d8471461049e5780633bbac579146104be57806349bd5a5e146104f757806350d00bc4146105175780635347974e1461052c578063632cb37c1461054157600080fd5b80631e4bdf961461041557806323b872dd1461043557806327eab83f1461045557806329b8424a14610475578063313ce5671461048a57600080fd5b80630f0de1861161022f5780630f0de1861461035c578063100936b71461037c5780631694505e146103a057806318160ddd146103c05780631a9fc340146103d55780631abb1af9146103f557600080fd5b80630281ba1d1461027757806303c0f5d4146102b457806306fdde03146102d6578063095ea7b31461030c5780630cc835a31461033c57600080fd5b3661027257005b600080fd5b34801561028357600080fd5b50601054610297906001600160a01b031681565b6040516001600160a01b0390911681526020015b60405180910390f35b3480156102c057600080fd5b506102d46102cf36600461212f565b61080d565b005b3480156102e257600080fd5b5060408051808201825260078152664859425249445360c81b602082015290516102ab9190612168565b34801561031857600080fd5b5061032c6103273660046121b6565b610840565b60405190151581526020016102ab565b34801561034857600080fd5b506102d46103573660046121e2565b610857565b34801561036857600080fd5b506102d46103773660046121fb565b610864565b34801561038857600080fd5b5061039260075481565b6040519081526020016102ab565b3480156103ac57600080fd5b50600f54610297906001600160a01b031681565b3480156103cc57600080fd5b506103926108f3565b3480156103e157600080fd5b50601154610297906001600160a01b031681565b34801561040157600080fd5b506102d46104103660046121fb565b610912565b34801561042157600080fd5b506102d46104303660046121fb565b6109dc565b34801561044157600080fd5b5061032c61045036600461221f565b610a4e565b34801561046157600080fd5b50601354610297906001600160a01b031681565b34801561048157600080fd5b506102d4610aa0565b34801561049657600080fd5b506012610392565b3480156104aa57600080fd5b506102d46104b9366004612260565b610c24565b3480156104ca57600080fd5b5061032c6104d93660046121fb565b6001600160a01b031660009081526005602052604090205460ff1690565b34801561050357600080fd5b50601254610297906001600160a01b031681565b34801561052357600080fd5b50610392610ca3565b34801561053857600080fd5b50610392610cbd565b34801561054d57600080fd5b506102d461055c3660046121fb565b610d2b565b34801561056d57600080fd5b5060125461032c90600160b01b900460ff1681565b34801561058e57600080fd5b5061039261059d3660046121fb565b6001600160a01b031660009081526002602052604090205490565b3480156105c457600080fd5b506102d4610d54565b3480156105d957600080fd5b506102d46105e83660046122d5565b610d66565b3480156105f957600080fd5b506102d4610dd8565b34801561060e57600080fd5b506102d461061d3660046121e2565b610e62565b34801561062e57600080fd5b506000546001600160a01b0316610297565b34801561064c57600080fd5b506102d461065b36600461230d565b610e6f565b34801561066c57600080fd5b5061039260085481565b34801561068257600080fd5b5061032c6106913660046121b6565b610ea7565b3480156106a257600080fd5b50610392610eb4565b3480156106b757600080fd5b506102d4610efe565b3480156106cc57600080fd5b5061032c6106db3660046121fb565b60056020526000908152604090205460ff1681565b3480156106fc57600080fd5b506102d4610f9d565b34801561071157600080fd5b506102d4610720366004612260565b611335565b34801561073157600080fd5b5060125461032c90600160a81b900460ff1681565b34801561075257600080fd5b506103926107613660046123be565b6001600160a01b03918216600090815260036020908152604080832093909416825291909152205490565b34801561079857600080fd5b506102d46107a73660046121e2565b6113af565b3480156107b857600080fd5b506102d46107c73660046121e2565b611588565b3480156107d857600080fd5b506102d46107e73660046121fb565b61175f565b3480156107f857600080fd5b5060125461032c90600160a01b900460ff1681565b61081561179d565b6001600160a01b03919091166000908152600560205260409020805460ff1916911515919091179055565b600061084d3384846117ca565b5060015b92915050565b61085f61179d565b600955565b61086c61179d565b6001600160a01b03811660009081526005602052604090205460ff16156108cf5760405162461bcd60e51b8152602060048201526012602482015271109bdd081a5cc81b9bddc8185b1b1bddd95960721b60448201526064015b60405180910390fd5b6001600160a01b03166000908152600460205260409020805460ff19166001179055565b60006109016012600a6124e6565b61090d906127106124f2565b905090565b61091a61179d565b6001600160a01b0381166109625760405162461bcd60e51b815260206004820152600f60248201526e496e76616c6964204164647265737360881b60448201526064016108c6565b601180546001600160a01b0319166001600160a01b038381169182179092556013546040516360861aa360e11b815260048101929092529091169063c10c3546906024015b600060405180830381600087803b1580156109c157600080fd5b505af11580156109d5573d6000803e3d6000fd5b5050505050565b6109e461179d565b6001600160a01b038116610a2c5760405162461bcd60e51b815260206004820152600f60248201526e496e76616c6964204164647265737360881b60448201526064016108c6565b601080546001600160a01b0319166001600160a01b0392909216919091179055565b6000610a5b8484846118ee565b6001600160a01b038416600090815260036020908152604080832033808552925290912054610a96918691610a91908690612509565b6117ca565b5060019392505050565b610aa8611efe565b610ab061179d565b6000600854118015610acc57506010546001600160a01b031615155b8015610b4a5750601060009054906101000a90046001600160a01b03166001600160a01b0316632dc17aff6040518163ffffffff1660e01b8152600401602060405180830381865afa158015610b26573d6000803e3d6000fd5b505050506040513d601f19601f82011682018060405250810190610b4a919061251c565b610b965760405162461bcd60e51b815260206004820152601f60248201527f44697370657273696e6720636f6e646974696f6e206973206e6f74206d65740060448201526064016108c6565b600854601054610baf91906001600160a01b0316611f28565b601060009054906101000a90046001600160a01b03166001600160a01b031663db83efec6040518163ffffffff1660e01b8152600401600060405180830381600087803b158015610bff57600080fd5b505af1158015610c13573d6000803e3d6000fd5b50506000600855505060018055565b565b610c2c61179d565b60005b81811015610c9e57600060056000858585818110610c4f57610c4f612539565b9050602002016020810190610c6491906121fb565b6001600160a01b031681526020810191909152604001600020805460ff191691151591909117905580610c968161254f565b915050610c2f565b505050565b610caf6012600a6124e6565b610cba9060016124f2565b81565b601354604080516329a3cba760e11b815290516000926001600160a01b031691635347974e9160048083019260209291908290030181865afa158015610d07573d6000803e3d6000fd5b505050506040513d601f19601f8201168201806040525081019061090d9190612568565b610d3361179d565b6001600160a01b03166000908152600460205260409020805460ff19169055565b610d5c61179d565b610c2260006120bc565b610d6e61179d565b60135460405163ad6f0fa960e01b815260048101849052602481018390526001600160a01b039091169063ad6f0fa9906044015b600060405180830381600087803b158015610dbc57600080fd5b505af1158015610dd0573d6000803e3d6000fd5b505050505050565b610de061179d565b610dec6012600a6124e6565b610df8906127106124f2565b600b55610e076012600a6124e6565b610e13906127106124f2565b600c557f947f344d56e1e8c70dc492fb94c4ddddd490c016aab685f5e7e47b2e85cb44cf610e436012600a6124e6565b610e4f906127106124f2565b60405190815260200160405180910390a1565b610e6a61179d565b600a55565b610e7761179d565b6013546040516355f804b360e01b81526001600160a01b03909116906355f804b3906109a7908490600401612168565b600061084d3384846118ee565b6013546040805163aaa9ba7d60e01b815290516000926001600160a01b03169163aaa9ba7d9160048083019260209291908290030181865afa158015610d07573d6000803e3d6000fd5b610f06611efe565b610f0e61179d565b6000600754118015610f2a57506011546001600160a01b031615155b610f765760405162461bcd60e51b815260206004820152601f60248201527f44697370657273696e6720636f6e646974696f6e206973206e6f74206d65740060448201526064016108c6565b600754601154610f8f91906001600160a01b0316611f28565b6000600755610c2260018055565b610fa561179d565b601254600160a01b900460ff1615610fff5760405162461bcd60e51b815260206004820152601960248201527f54726164696e6720697320616c7265616479206f70656e65640000000000000060448201526064016108c6565b600f80546001600160a01b031916731689e7b1f10000ae47ebfe339a4f69decd19f60290811790915561104690309061103a6012600a6124e6565b610a91906127106124f2565b600f60009054906101000a90046001600160a01b03166001600160a01b031663c45a01556040518163ffffffff1660e01b8152600401602060405180830381865afa158015611099573d6000803e3d6000fd5b505050506040513d601f19601f820116820180604052508101906110bd9190612581565b6001600160a01b031663c9c6539630600f60009054906101000a90046001600160a01b03166001600160a01b031663ad5c46486040518163ffffffff1660e01b8152600401602060405180830381865afa15801561111f573d6000803e3d6000fd5b505050506040513d601f19601f820116820180604052508101906111439190612581565b6040516001600160e01b031960e085901b1681526001600160a01b039283166004820152911660248201526044016020604051808303816000875af1158015611190573d6000803e3d6000fd5b505050506040513d601f19601f820116820180604052508101906111b49190612581565b601280546001600160a01b039283166001600160a01b0319909116179055600f541663f305d71947306111fc816001600160a01b031660009081526002602052604090205490565b6000806112116000546001600160a01b031690565b60405160e088901b6001600160e01b03191681526001600160a01b03958616600482015260248101949094526044840192909252606483015290911660848201524260a482015260c40160606040518083038185885af1158015611279573d6000803e3d6000fd5b50505050506040513d601f19601f8201168201806040525081019061129e919061259e565b5050601254600f5460405163095ea7b360e01b81526001600160a01b03918216600482015260001960248201529116915063095ea7b3906044016020604051808303816000875af11580156112f7573d6000803e3d6000fd5b505050506040513d601f19601f8201168201806040525081019061131b919061251c565b506012805462ff00ff60a01b19166201000160a01b179055565b61133d61179d565b60005b81811015610c9e5760016005600085858581811061136057611360612539565b905060200201602081019061137591906121fb565b6001600160a01b031681526020810191909152604001600020805460ff1916911515919091179055806113a78161254f565b915050611340565b336113b957600080fd5b601354604080516329a3cba760e11b815290516000926001600160a01b031691635347974e9160048083019260209291908290030181865afa158015611403573d6000803e3d6000fd5b505050506040513d601f19601f820116820180604052508101906114279190612568565b306000908152600260205260409020549091508111156114895760405162461bcd60e51b815260206004820152601c60248201527f496e656666696369656e7420416d6f756e7420746f20556e577261700000000060448201526064016108c6565b306000908152600260205260409020546114a4908290612509565b306000908152600260205260408082209290925533815220546114c89082906125cc565b33600090815260026020526040902055806114e56012600a6124e6565b6114f09060016124f2565b6114fa9190612509565b6007600082825461150b91906125cc565b9091555050601254600160b01b900460ff16801561152d5750600e5460075410155b156115515760075460115461154b91906001600160a01b0316611f28565b60006007555b601354604051637647691d60e01b8152600481018490523360248201526001600160a01b0390911690637647691d90604401610da2565b3361159257600080fd5b6013546040805163aaa9ba7d60e01b815290516000926001600160a01b03169163aaa9ba7d9160048083019260209291908290030181865afa1580156115dc573d6000803e3d6000fd5b505050506040513d601f19601f820116820180604052508101906116009190612568565b336000908152600260205260409020549091508111156116625760405162461bcd60e51b815260206004820152601a60248201527f496e656666696369656e7420416d6f756e7420746f205772617000000000000060448201526064016108c6565b3360009081526002602052604090205461167d908290612509565b336000908152600260205260408082209290925530815220546116a19082906125cc565b306000908152600260205260409020556116bd6012600a6124e6565b6116c89060016124f2565b6116d29082612509565b600760008282546116e391906125cc565b9091555050601254600160b01b900460ff1680156117055750600e5460075410155b156117295760075460115461172391906001600160a01b0316611f28565b60006007555b601354604051629dd64160e51b8152600481018490523360248201526001600160a01b03909116906313bac82090604401610da2565b61176761179d565b6001600160a01b03811661179157604051631e4fbdf760e01b8152600060048201526024016108c6565b61179a816120bc565b50565b6000546001600160a01b03163314610c225760405163118cdaa760e01b81523360048201526024016108c6565b6001600160a01b03831661182c5760405162461bcd60e51b8152602060048201526024808201527f45524332303a20617070726f76652066726f6d20746865207a65726f206164646044820152637265737360e01b60648201526084016108c6565b6001600160a01b03821661188d5760405162461bcd60e51b815260206004820152602260248201527f45524332303a20617070726f766520746f20746865207a65726f206164647265604482015261737360f01b60648201526084016108c6565b6001600160a01b0383811660008181526003602090815260408083209487168084529482529182902085905590518481527f8c5be1e5ebec7d5bd14f71427d1e84f3dd0314c0f7b2291e5b200ac8c7c3b925910160405180910390a3505050565b6001600160a01b0383166119525760405162461bcd60e51b815260206004820152602560248201527f45524332303a207472616e736665722066726f6d20746865207a65726f206164604482015264647265737360d81b60648201526084016108c6565b6001600160a01b0382166119b45760405162461bcd60e51b815260206004820152602360248201527f45524332303a207472616e7366657220746f20746865207a65726f206164647260448201526265737360e81b60648201526084016108c6565b60008111611a165760405162461bcd60e51b815260206004820152602960248201527f5472616e7366657220616d6f756e74206d7573742062652067726561746572206044820152687468616e207a65726f60b81b60648201526084016108c6565b600080546001600160a01b03858116911614801590611a4357506000546001600160a01b03848116911614155b15611caf576001600160a01b03841660009081526005602052604090205460ff16158015611a8a57506001600160a01b03831660009081526005602052604090205460ff16155b611a9357600080fd5b6012546001600160a01b038581169116148015611abe5750600f546001600160a01b03848116911614155b8015611ae357506001600160a01b03831660009081526004602052604090205460ff16155b15611bf357600b54821115611b365760405162461bcd60e51b8152602060048201526019602482015278115e18d959590813585e08151c98591a5b99c8105b5bdd5b9d603a1b60448201526064016108c6565b600c54612710600954612710611b4c9190612509565b611b5690856124f2565b611b6091906125df565b6001600160a01b038516600090815260026020526040902054611b8391906125cc565b1115611bd15760405162461bcd60e51b815260206004820152601860248201527f457863656564204d61782057616c6c657420416d6f756e74000000000000000060448201526064016108c6565b61271060095483611be291906124f2565b611bec91906125df565b9050611caf565b6012546001600160a01b038481169116148015611c1957506001600160a01b0384163014155b8015611c3e57506001600160a01b03841660009081526004602052604090205460ff16155b15611caf57600b54821115611c915760405162461bcd60e51b8152602060048201526019602482015278115e18d959590813585e08151c98591a5b99c8105b5bdd5b9d603a1b60448201526064016108c6565b612710600a5483611ca291906124f2565b611cac91906125df565b90505b8015611d325730600090815260026020526040902054611cd09082906125cc565b30600090815260026020526040902055600854611cee9082906125cc565b60085560405181815230906001600160a01b038616907fddf252ad1be2c89b69c2b068fc378daa952ba7f163c4a11628f55a4df523b3ef9060200160405180910390a35b601254600160a81b900460ff16158015611d5957506012546001600160a01b038481169116145b8015611d6e5750601254600160b01b900460ff165b8015611d7e5750600d5460085410155b15611e33576010546001600160a01b031615801590611e0f5750601060009054906101000a90046001600160a01b03166001600160a01b0316632dc17aff6040518163ffffffff1660e01b8152600401602060405180830381865afa158015611deb573d6000803e3d6000fd5b505050506040513d601f19601f82011682018060405250810190611e0f919061251c565b15611e3357600854601054611e2d91906001600160a01b0316611f28565b60006008555b6001600160a01b038416600090815260026020526040902054611e57908390612509565b6001600160a01b038516600090815260026020526040902055611e7a8183612509565b6001600160a01b038416600090815260026020526040902054611e9d91906125cc565b6001600160a01b0380851660008181526002602052604090209290925585167fddf252ad1be2c89b69c2b068fc378daa952ba7f163c4a11628f55a4df523b3ef611ee78486612509565b60405190815260200160405180910390a350505050565b600260015403611f2157604051633ee5aeb560e01b815260040160405180910390fd5b6002600155565b6012805460ff60a81b1916600160a81b17905581156120ab57601254600160a01b900460ff16156120ab576040805160028082526060820183526000926020830190803683370190505090503081600081518110611f8857611f88612539565b6001600160a01b03928316602091820292909201810191909152600f54604080516315ab88c960e31b81529051919093169263ad5c46489260048083019391928290030181865afa158015611fe1573d6000803e3d6000fd5b505050506040513d601f19601f820116820180604052508101906120059190612581565b8160018151811061201857612018612539565b6001600160a01b039283166020918202929092010152600f5461203e91309116856117ca565b600f5460405163791ac94760e01b81526001600160a01b039091169063791ac94790612077908690600090869088904290600401612601565b600060405180830381600087803b15801561209157600080fd5b505af11580156120a5573d6000803e3d6000fd5b50505050505b50506012805460ff60a81b19169055565b600080546001600160a01b038381166001600160a01b0319831681178455604051919092169283917f8be0079c531659141344cd1fd0a4f28419497f9722a3daafe3b4186f6b6457e09190a35050565b6001600160a01b038116811461179a57600080fd5b801515811461179a57600080fd5b6000806040838503121561214257600080fd5b823561214d8161210c565b9150602083013561215d81612121565b809150509250929050565b600060208083528351808285015260005b8181101561219557858101830151858201604001528201612179565b506000604082860101526040601f19601f8301168501019250505092915050565b600080604083850312156121c957600080fd5b82356121d48161210c565b946020939093013593505050565b6000602082840312156121f457600080fd5b5035919050565b60006020828403121561220d57600080fd5b81356122188161210c565b9392505050565b60008060006060848603121561223457600080fd5b833561223f8161210c565b9250602084013561224f8161210c565b929592945050506040919091013590565b6000806020838503121561227357600080fd5b823567ffffffffffffffff8082111561228b57600080fd5b818501915085601f83011261229f57600080fd5b8135818111156122ae57600080fd5b8660208260051b85010111156122c357600080fd5b60209290920196919550909350505050565b600080604083850312156122e857600080fd5b50508035926020909101359150565b634e487b7160e01b600052604160045260246000fd5b60006020828403121561231f57600080fd5b813567ffffffffffffffff8082111561233757600080fd5b818401915084601f83011261234b57600080fd5b81358181111561235d5761235d6122f7565b604051601f8201601f19908116603f01168101908382118183101715612385576123856122f7565b8160405282815287602084870101111561239e57600080fd5b826020860160208301376000928101602001929092525095945050505050565b600080604083850312156123d157600080fd5b82356123dc8161210c565b9150602083013561215d8161210c565b634e487b7160e01b600052601160045260246000fd5b600181815b8085111561243d578160001904821115612423576124236123ec565b8085161561243057918102915b93841c9390800290612407565b509250929050565b60008261245457506001610851565b8161246157506000610851565b816001811461247757600281146124815761249d565b6001915050610851565b60ff841115612492576124926123ec565b50506001821b610851565b5060208310610133831016604e8410600b84101617156124c0575081810a610851565b6124ca8383612402565b80600019048211156124de576124de6123ec565b029392505050565b60006122188383612445565b8082028115828204841417610851576108516123ec565b81810381811115610851576108516123ec565b60006020828403121561252e57600080fd5b815161221881612121565b634e487b7160e01b600052603260045260246000fd5b600060018201612561576125616123ec565b5060010190565b60006020828403121561257a57600080fd5b5051919050565b60006020828403121561259357600080fd5b81516122188161210c565b6000806000606084860312156125b357600080fd5b8351925060208401519150604084015190509250925092565b80820180821115610851576108516123ec565b6000826125fc57634e487b7160e01b600052601260045260246000fd5b500490565b600060a082018783526020878185015260a0604085015281875180845260c086019150828901935060005b818110156126515784516001600160a01b03168352938301939183019160010161262c565b50506001600160a01b0396909616606085015250505060800152939250505056fea26469706673582212204262ed26e842daceb19815269b97a02ad5c6e7758662557d6e15c4db9fc4cb7c64736f6c6343000814003360c06040526005608090815264173539b7b760d91b60a052600b90620000269082620001db565b506000600f553480156200003957600080fd5b50604051620026dc380380620026dc8339810160408190526200005c9162000356565b33838360006200006d8382620001db565b5060016200007c8282620001db565b5050506001600160a01b038116620000ae57604051631e4fbdf760e01b81526000600482015260240160405180910390fd5b620000b981620000e4565b506008620000c88482620001db565b506009620000d78382620001db565b5060105550620003c99050565b600780546001600160a01b038381166001600160a01b0319831681179093556040519116919082907f8be0079c531659141344cd1fd0a4f28419497f9722a3daafe3b4186f6b6457e090600090a35050565b634e487b7160e01b600052604160045260246000fd5b600181811c908216806200016157607f821691505b6020821081036200018257634e487b7160e01b600052602260045260246000fd5b50919050565b601f821115620001d657600081815260208120601f850160051c81016020861015620001b15750805b601f850160051c820191505b81811015620001d257828155600101620001bd565b5050505b505050565b81516001600160401b03811115620001f757620001f762000136565b6200020f816200020884546200014c565b8462000188565b602080601f8311600181146200024757600084156200022e5750858301515b600019600386901b1c1916600185901b178555620001d2565b600085815260208120601f198616915b82811015620002785788860151825594840194600190910190840162000257565b5085821015620002975787850151600019600388901b60f8161c191681555b5050505050600190811b01905550565b600082601f830112620002b957600080fd5b81516001600160401b0380821115620002d657620002d662000136565b604051601f8301601f19908116603f0116810190828211818310171562000301576200030162000136565b816040528381526020925086838588010111156200031e57600080fd5b600091505b8382101562000342578582018301518183018401529082019062000323565b600093810190920192909252949350505050565b6000806000606084860312156200036c57600080fd5b83516001600160401b03808211156200038457600080fd5b6200039287838801620002a7565b94506020860151915080821115620003a957600080fd5b50620003b886828701620002a7565b925050604084015190509250925092565b61230380620003d96000396000f3fe6080604052600436106101d15760003560e01c80637647691d116100f7578063ad6f0fa911610095578063c87b56dd11610064578063c87b56dd1461056c578063d5abeb011461058c578063e985e9c5146105a1578063f2fde38b146105c157600080fd5b8063ad6f0fa9146104ec578063b88d4fde1461050c578063b9d2326e1461052c578063c10c35461461054c57600080fd5b80639523f72c116100d15780639523f72c1461048d57806395d89b41146104a2578063a22cb465146104b7578063aaa9ba7d146104d757600080fd5b80637647691d146104355780638da5cb5b146104555780639057f5dd1461047357600080fd5b806323b872dd1161016f5780636352211e1161013e5780636352211e146103be5780636fd77ce5146103de57806370a0823114610400578063715018a61461042057600080fd5b806323b872dd1461034957806342842e0e146103695780635347974e1461038957806355f804b31461039e57600080fd5b8063095ea7b3116101ab578063095ea7b3146102a457806313bac820146102c6578063150b7a02146102e657806318160ddd1461032a57600080fd5b806301ffc9a71461021557806306fdde031461024a578063081812fc1461026c57600080fd5b3661021057604080513381523460208201527f4103257eaac983ca79a70d28f90dfc4fa16b619bb0c17ee7cab0d4034c279624910160405180910390a1005b600080fd5b34801561022157600080fd5b50610235610230366004611b17565b6105e1565b60405190151581526020015b60405180910390f35b34801561025657600080fd5b5061025f61060c565b6040516102419190611b84565b34801561027857600080fd5b5061028c610287366004611b97565b61069e565b6040516001600160a01b039091168152602001610241565b3480156102b057600080fd5b506102c46102bf366004611bcc565b6106c7565b005b3480156102d257600080fd5b506102c46102e1366004611bf6565b6106d6565b3480156102f257600080fd5b50610311610301366004611cae565b630a85bd0160e11b949350505050565b6040516001600160e01b03199091168152602001610241565b34801561033657600080fd5b50600f545b604051908152602001610241565b34801561035557600080fd5b506102c4610364366004611d2a565b6107a0565b34801561037557600080fd5b506102c4610384366004611d2a565b61082b565b34801561039557600080fd5b5061033b61084b565b3480156103aa57600080fd5b506102c46103b9366004611d66565b610899565b3480156103ca57600080fd5b5061028c6103d9366004611b97565b6108cf565b3480156103ea57600080fd5b506103f36108da565b6040516102419190611daf565b34801561040c57600080fd5b5061033b61041b366004611df3565b610931565b34801561042c57600080fd5b506102c4610979565b34801561044157600080fd5b506102c4610450366004611bf6565b61098d565b34801561046157600080fd5b506007546001600160a01b031661028c565b34801561047f57600080fd5b50600c546102359060ff1681565b34801561049957600080fd5b506103f3610a1c565b3480156104ae57600080fd5b5061025f610a72565b3480156104c357600080fd5b506102c46104d2366004611e0e565b610a81565b3480156104e357600080fd5b5061033b610a8c565b3480156104f857600080fd5b506102c4610507366004611e4a565b610ad3565b34801561051857600080fd5b506102c4610527366004611cae565b610b68565b34801561053857600080fd5b506102c4610547366004611e4a565b610b7f565b34801561055857600080fd5b506102c4610567366004611df3565b610c7a565b34801561057857600080fd5b5061025f610587366004611b97565b610cc6565b34801561059857600080fd5b5060105461033b565b3480156105ad57600080fd5b506102356105bc366004611e6c565b610da5565b3480156105cd57600080fd5b506102c46105dc366004611df3565b610dd3565b60006001600160e01b03198216632483248360e11b1480610606575061060682610e11565b92915050565b60606008805461061b90611e96565b80601f016020809104026020016040519081016040528092919081815260200182805461064790611e96565b80156106945780601f1061066957610100808354040283529160200191610694565b820191906000526020600020905b81548152906001019060200180831161067757829003601f168201915b5050505050905090565b60006106a982610e61565b506000828152600460205260409020546001600160a01b0316610606565b6106d2828233610e9a565b5050565b6007546001600160a01b031633146107095760405162461bcd60e51b815260040161070090611ed0565b60405180910390fd5b600c5460ff1661072b5760405162461bcd60e51b815260040161070090611ef3565b6107358282610ea7565b6013546040516309ab22cf60e21b81526001600160a01b03838116600483015260016024830152909116906326ac8b3c906044015b600060405180830381600087803b15801561078457600080fd5b505af1158015610798573d6000803e3d6000fd5b505050505050565b6001600160a01b0382166107ca57604051633250574960e11b815260006004820152602401610700565b60006107d783833361107e565b9050836001600160a01b0316816001600160a01b031614610825576040516364283d7b60e01b81526001600160a01b0380861660048301526024820184905282166044820152606401610700565b50505050565b61084683838360405180602001604052806000815250610b68565b505050565b600c5460009060ff1661085d57600080fd5b600061086b6012600a61201d565b610876906001612029565b9050600061088682600e54611177565b90506108928183612040565b9250505090565b6007546001600160a01b031633146108c35760405162461bcd60e51b815260040161070090611ed0565b600a6106d28282612099565b600061060682610e61565b6060601180548060200260200160405190810160405280929190818152602001828054801561069457602002820191906000526020600020905b815481526020019060010190808311610914575050505050905090565b60006001600160a01b03821661095d576040516322718ad960e21b815260006004820152602401610700565b506001600160a01b031660009081526003602052604090205490565b610981611190565b61098b60006111bd565b565b6007546001600160a01b031633146109b75760405162461bcd60e51b815260040161070090611ed0565b600c5460ff166109d95760405162461bcd60e51b815260040161070090611ef3565b6109e3828261120f565b6013546040516309ab22cf60e21b81526001600160a01b03838116600483015260006024830152909116906326ac8b3c9060440161076a565b606060128054806020026020016040519081016040528092919081815260200182805480156106945760200282019190600052602060002090815481526020019060010190808311610914575050505050905090565b60606009805461061b90611e96565b6106d233838361135f565b600c5460009060ff16610a9e57600080fd5b6000610aac6012600a61201d565b610ab7906001612029565b90506000610ac782600d54611177565b90506108928183612159565b6007546001600160a01b03163314610afd5760405162461bcd60e51b815260040161070090611ed0565b600c5460ff1615610b505760405162461bcd60e51b815260206004820152601760248201527f4665657320616c726561647920636f6e666967757265640000000000000000006044820152606401610700565b600d91909155600e55600c805460ff19166001179055565b610b738484846107a0565b610825848484846113fe565b6007546001600160a01b03163314610ba95760405162461bcd60e51b815260040161070090611ed0565b600c5460ff16610bcb5760405162461bcd60e51b815260040161070090611ef3565b600d54821115610c1d5760405162461bcd60e51b815260206004820152601860248201527f43616e6e6f7420696e63726561736520575241502066656500000000000000006044820152606401610700565b600e54811115610c6f5760405162461bcd60e51b815260206004820152601a60248201527f43616e6e6f7420696e63726561736520554e57524150206665650000000000006044820152606401610700565b600d91909155600e55565b6007546001600160a01b03163314610ca45760405162461bcd60e51b815260040161070090611ed0565b601380546001600160a01b0319166001600160a01b0392909216919091179055565b6000818152600260205260409020546060906001600160a01b0316610d465760405162461bcd60e51b815260206004820152603060248201527f4552433732314d657461646174613a2055524920717565727920666f72206e6f60448201526f3732bc34b9ba32b73a103a37b5b2b71760811b6064820152608401610700565b6000610d50611527565b90506000815111610d705760405180602001604052806000815250610d9e565b80610d7a84611536565b600b604051602001610d8e9392919061216c565b6040516020818303038152906040525b9392505050565b6001600160a01b03918216600090815260056020908152604080832093909416825291909152205460ff1690565b610ddb611190565b6001600160a01b038116610e0557604051631e4fbdf760e01b815260006004820152602401610700565b610e0e816111bd565b50565b60006001600160e01b031982166380ac58cd60e01b1480610e4257506001600160e01b03198216635b5e139f60e01b145b8061060657506301ffc9a760e01b6001600160e01b0319831614610606565b6000818152600260205260408120546001600160a01b03168061060657604051637e27328960e01b815260048101849052602401610700565b61084683838360016115c9565b8115801590610eb857506010548211155b610ef85760405162461bcd60e51b815260206004820152601160248201527024b73b30b634b21027b832b930ba34b7b760791b6044820152606401610700565b600082815260026020526040902054306001600160a01b0390911603610fd057604051632142170760e11b815230600482018190526001600160a01b038316602483015260448201849052906342842e0e90606401600060405180830381600087803b158015610f6757600080fd5b505af1158015610f7b573d6000803e3d6000fd5b50505050610f88826116cf565b806001600160a01b03167fb61d00fdfee32467c7d81db64c811ae60c104c346debf36a14afe84b8fce59e583604051610fc391815260200190565b60405180910390a2611048565b6000828152600260205260409020546001600160a01b031661104857610ff681836117d9565b600f54611004906001612159565b600f8190556040519081526001600160a01b038216907fb61d00fdfee32467c7d81db64c811ae60c104c346debf36a14afe84b8fce59e59060200160405180910390a25b50601280546001810182556000919091527fbb8a6a4669ba250d26cd7a459eca9d215f8307e33aebe50379bc5a3617ec34440155565b6000828152600260205260408120546001600160a01b03908116908316156110ab576110ab8184866117f3565b6001600160a01b038116156110e9576110c86000856000806115c9565b6001600160a01b038116600090815260036020526040902080546000190190555b6001600160a01b03851615611118576001600160a01b0385166000908152600360205260409020805460010190555b60008481526002602052604080822080546001600160a01b0319166001600160a01b0389811691821790925591518793918516917fddf252ad1be2c89b69c2b068fc378daa952ba7f163c4a11628f55a4df523b3ef91a4949350505050565b60006127106111868385612029565b610d9e919061220c565b6007546001600160a01b0316331461098b5760405163118cdaa760e01b8152336004820152602401610700565b600780546001600160a01b038381166001600160a01b0319831681179093556040519116919082907f8be0079c531659141344cd1fd0a4f28419497f9722a3daafe3b4186f6b6457e090600090a35050565b806001600160a01b0316611222836108cf565b6001600160a01b0316146112785760405162461bcd60e51b815260206004820152601b60248201527f446f6e277420616c6c6f77656420746f20756e77726170204e465400000000006044820152606401610700565b604051632142170760e11b81526001600160a01b0382166004820152306024820181905260448201849052906342842e0e90606401600060405180830381600087803b1580156112c757600080fd5b505af11580156112db573d6000803e3d6000fd5b505050506112e882611857565b601180546001810182556000919091527f31ecc21a745e3968a04e9570e4425bc18fa8019c68028196b546d1669c200c68018290556040518281526001600160a01b038216907f5dd085b6070b4cae004f84daafd199fd55b0bdfa11c3a802baffe89c2419d8c29060200160405180910390a25050565b6001600160a01b03821661139157604051630b61174360e31b81526001600160a01b0383166004820152602401610700565b6001600160a01b03838116600081815260056020908152604080832094871680845294825291829020805460ff191686151590811790915591519182527f17307eab39ab6107e8899845ad3d59bd9653f200f220920489ca2b5937696c31910160405180910390a3505050565b6001600160a01b0383163b1561082557604051630a85bd0160e11b81526001600160a01b0384169063150b7a029061144090339088908790879060040161222e565b6020604051808303816000875af192505050801561147b575060408051601f3d908101601f191682019092526114789181019061226b565b60015b6114e4573d8080156114a9576040519150601f19603f3d011682016040523d82523d6000602084013e6114ae565b606091505b5080516000036114dc57604051633250574960e11b81526001600160a01b0385166004820152602401610700565b805181602001fd5b6001600160e01b03198116630a85bd0160e11b1461152057604051633250574960e11b81526001600160a01b0385166004820152602401610700565b5050505050565b6060600a805461061b90611e96565b6060600061154383611947565b600101905060008167ffffffffffffffff81111561156357611563611c22565b6040519080825280601f01601f19166020018201604052801561158d576020820181803683370190505b5090508181016020015b600019016f181899199a1a9b1b9c1cb0b131b232b360811b600a86061a8153600a850494508461159757509392505050565b80806115dd57506001600160a01b03821615155b1561169f5760006115ed84610e61565b90506001600160a01b038316158015906116195750826001600160a01b0316816001600160a01b031614155b801561162c575061162a8184610da5565b155b156116555760405163a9fbf51f60e01b81526001600160a01b0384166004820152602401610700565b811561169d5783856001600160a01b0316826001600160a01b03167f8c5be1e5ebec7d5bd14f71427d1e84f3dd0314c0f7b2291e5b200ac8c7c3b92560405160405180910390a45b505b5050600090815260046020526040902080546001600160a01b0319166001600160a01b0392909216919091179055565b60115460005b60115481101561171d5782601182815481106116f3576116f3612288565b90600052602060002001540361170b5780915061171d565b806117158161229e565b9150506116d5565b5060115481106117645760405162461bcd60e51b8152602060048201526012602482015271151bdad95b881a5cc81b9bdd08199bdd5b9960721b6044820152606401610700565b6011805461177490600190612040565b8154811061178457611784612288565b9060005260206000200154601182815481106117a2576117a2612288565b60009182526020909120015560118054806117bf576117bf6122b7565b600190038181906000526020600020016000905590555050565b6106d2828260405180602001604052806000815250611a1f565b6117fe838383611a36565b610846576001600160a01b03831661182c57604051637e27328960e01b815260048101829052602401610700565b60405163177e802f60e01b81526001600160a01b038316600482015260248101829052604401610700565b60125460005b6012548110156118a557826012828154811061187b5761187b612288565b906000526020600020015403611893578091506118a5565b8061189d8161229e565b91505061185d565b5060125481106118ec5760405162461bcd60e51b8152602060048201526012602482015271151bdad95b881a5cc81b9bdd08199bdd5b9960721b6044820152606401610700565b601280546118fc90600190612040565b8154811061190c5761190c612288565b90600052602060002001546012828154811061192a5761192a612288565b60009182526020909120015560128054806117bf576117bf6122b7565b60008072184f03e93ff9f4daa797ed6e38ed64bf6a1f0160401b83106119865772184f03e93ff9f4daa797ed6e38ed64bf6a1f0160401b830492506040015b6d04ee2d6d415b85acef810000000083106119b2576d04ee2d6d415b85acef8100000000830492506020015b662386f26fc1000083106119d057662386f26fc10000830492506010015b6305f5e10083106119e8576305f5e100830492506008015b61271083106119fc57612710830492506004015b60648310611a0e576064830492506002015b600a83106106065760010192915050565b611a298383611a9c565b61084660008484846113fe565b60006001600160a01b03831615801590611a945750826001600160a01b0316846001600160a01b03161480611a705750611a708484610da5565b80611a9457506000828152600460205260409020546001600160a01b038481169116145b949350505050565b6001600160a01b038216611ac657604051633250574960e11b815260006004820152602401610700565b6000611ad48383600061107e565b90506001600160a01b03811615610846576040516339e3563760e11b815260006004820152602401610700565b6001600160e01b031981168114610e0e57600080fd5b600060208284031215611b2957600080fd5b8135610d9e81611b01565b60005b83811015611b4f578181015183820152602001611b37565b50506000910152565b60008151808452611b70816020860160208601611b34565b601f01601f19169290920160200192915050565b602081526000610d9e6020830184611b58565b600060208284031215611ba957600080fd5b5035919050565b80356001600160a01b0381168114611bc757600080fd5b919050565b60008060408385031215611bdf57600080fd5b611be883611bb0565b946020939093013593505050565b60008060408385031215611c0957600080fd5b82359150611c1960208401611bb0565b90509250929050565b634e487b7160e01b600052604160045260246000fd5b600067ffffffffffffffff80841115611c5357611c53611c22565b604051601f8501601f19908116603f01168101908282118183101715611c7b57611c7b611c22565b81604052809350858152868686011115611c9457600080fd5b858560208301376000602087830101525050509392505050565b60008060008060808587031215611cc457600080fd5b611ccd85611bb0565b9350611cdb60208601611bb0565b925060408501359150606085013567ffffffffffffffff811115611cfe57600080fd5b8501601f81018713611d0f57600080fd5b611d1e87823560208401611c38565b91505092959194509250565b600080600060608486031215611d3f57600080fd5b611d4884611bb0565b9250611d5660208501611bb0565b9150604084013590509250925092565b600060208284031215611d7857600080fd5b813567ffffffffffffffff811115611d8f57600080fd5b8201601f81018413611da057600080fd5b611a9484823560208401611c38565b6020808252825182820181905260009190848201906040850190845b81811015611de757835183529284019291840191600101611dcb565b50909695505050505050565b600060208284031215611e0557600080fd5b610d9e82611bb0565b60008060408385031215611e2157600080fd5b611e2a83611bb0565b915060208301358015158114611e3f57600080fd5b809150509250929050565b60008060408385031215611e5d57600080fd5b50508035926020909101359150565b60008060408385031215611e7f57600080fd5b611e8883611bb0565b9150611c1960208401611bb0565b600181811c90821680611eaa57607f821691505b602082108103611eca57634e487b7160e01b600052602260045260246000fd5b50919050565b6020808252600990820152682737ba1037bbb732b960b91b604082015260600190565b6020808252601690820152751199595cc81a5cc81b9bdd0818dbdb999a59dd5c995960521b604082015260600190565b634e487b7160e01b600052601160045260246000fd5b600181815b80851115611f74578160001904821115611f5a57611f5a611f23565b80851615611f6757918102915b93841c9390800290611f3e565b509250929050565b600082611f8b57506001610606565b81611f9857506000610606565b8160018114611fae5760028114611fb857611fd4565b6001915050610606565b60ff841115611fc957611fc9611f23565b50506001821b610606565b5060208310610133831016604e8410600b8410161715611ff7575081810a610606565b6120018383611f39565b806000190482111561201557612015611f23565b029392505050565b6000610d9e8383611f7c565b808202811582820484141761060657610606611f23565b8181038181111561060657610606611f23565b601f82111561084657600081815260208120601f850160051c8101602086101561207a5750805b601f850160051c820191505b8181101561079857828155600101612086565b815167ffffffffffffffff8111156120b3576120b3611c22565b6120c7816120c18454611e96565b84612053565b602080601f8311600181146120fc57600084156120e45750858301515b600019600386901b1c1916600185901b178555610798565b600085815260208120601f198616915b8281101561212b5788860151825594840194600190910190840161210c565b50858210156121495787850151600019600388901b60f8161c191681555b5050505050600190811b01905550565b8082018082111561060657610606611f23565b60008451602061217f8285838a01611b34565b8551918401916121928184848a01611b34565b85549201916000906121a381611e96565b600182811680156121bb57600181146121d0576121fc565b60ff19841687528215158302870194506121fc565b896000528560002060005b848110156121f4578154898201529083019087016121db565b505082870194505b50929a9950505050505050505050565b60008261222957634e487b7160e01b600052601260045260246000fd5b500490565b6001600160a01b038581168252841660208201526040810183905260806060820181905260009061226190830184611b58565b9695505050505050565b60006020828403121561227d57600080fd5b8151610d9e81611b01565b634e487b7160e01b600052603260045260246000fd5b6000600182016122b0576122b0611f23565b5060010190565b634e487b7160e01b600052603160045260246000fdfea2646970667358221220afa3d1eb985c4d43bf750f64e7fa945c21072fff47bed0cb098f898c7fe4219164736f6c63430008140033",
  "linkReferences": {},
  "deployedLinkReferences": {}
}